{
  "contractName": "MyContract",
  "abi": [
    {
      "inputs": [
        {
          "name": "_link",
          "type": "address"
        },
        {
          "name": "_oracle",
          "type": "address"
        },
        {
          "name": "_jobId",
          "type": "bytes32"
        },
        {
          "name": "_oraclePaymentAmount",
          "type": "uint256"
        }
      ],
      "payable": false,
      "stateMutability": "nonpayable",
      "type": "constructor"
    },
    {
      "anonymous": false,
      "inputs": [
        {
          "indexed": true,
          "name": "id",
          "type": "bytes32"
        }
      ],
      "name": "ChainlinkRequested",
      "type": "event"
    },
    {
      "anonymous": false,
      "inputs": [
        {
          "indexed": true,
          "name": "id",
          "type": "bytes32"
        }
      ],
      "name": "ChainlinkFulfilled",
      "type": "event"
    },
    {
      "anonymous": false,
      "inputs": [
        {
          "indexed": true,
          "name": "id",
          "type": "bytes32"
        }
      ],
      "name": "ChainlinkCancelled",
      "type": "event"
    },
    {
      "constant": true,
      "inputs": [
        {
          "name": "eBtcAddress",
          "type": "string"
        }
      ],
      "name": "getSwapContract",
      "outputs": [
        {
          "name": "",
          "type": "bool"
        },
        {
          "name": "",
          "type": "uint256"
        },
        {
          "name": "",
          "type": "string"
        },
        {
          "name": "",
          "type": "uint256"
        },
        {
          "name": "",
          "type": "uint256"
        },
        {
          "name": "",
          "type": "address"
        },
        {
          "name": "",
          "type": "string"
        },
        {
          "name": "",
          "type": "address"
        },
        {
          "name": "",
          "type": "string"
        },
        {
          "name": "",
          "type": "bytes32"
        },
        {
          "name": "",
          "type": "bytes32"
        },
        {
          "name": "",
          "type": "bytes32"
        }
      ],
      "payable": false,
      "stateMutability": "view",
      "type": "function"
    },
    {
      "constant": false,
      "inputs": [
        {
          "name": "_eBtcAddress",
          "type": "string"
        },
        {
          "name": "_requestedBtc",
          "type": "string"
        },
        {
          "name": "_requestedEthCollateral",
          "type": "uint256"
        }
      ],
      "name": "initiateSwapContract",
      "outputs": [],
      "payable": true,
      "stateMutability": "payable",
      "type": "function"
    },
    {
      "constant": false,
      "inputs": [
        {
          "name": "_eBtcAddress",
          "type": "string"
        }
      ],
      "name": "acceptSwapContract",
      "outputs": [],
      "payable": true,
      "stateMutability": "payable",
      "type": "function"
    },
    {
      "constant": false,
      "inputs": [
        {
          "name": "_eBtcAddress",
          "type": "string"
        },
        {
          "name": "_transactionHash",
          "type": "string"
        }
      ],
      "name": "satisfySwapContract",
      "outputs": [],
      "payable": false,
      "stateMutability": "nonpayable",
      "type": "function"
    },
    {
      "constant": false,
      "inputs": [
        {
          "name": "_eBtcAddress",
          "type": "string"
        }
      ],
      "name": "requestNbConfirmations",
      "outputs": [
        {
          "name": "requestId",
          "type": "bytes32"
        }
      ],
      "payable": false,
      "stateMutability": "nonpayable",
      "type": "function"
    },
    {
      "constant": false,
      "inputs": [
        {
          "name": "_requestId",
          "type": "bytes32"
        },
        {
          "name": "_result",
          "type": "bytes32"
        }
      ],
      "name": "fulfillNbConfirmations",
      "outputs": [],
      "payable": false,
      "stateMutability": "nonpayable",
      "type": "function"
    },
    {
      "constant": false,
      "inputs": [
        {
          "name": "_eBtcAddress",
          "type": "string"
        }
      ],
      "name": "requestVoutAddress",
      "outputs": [
        {
          "name": "requestId",
          "type": "bytes32"
        }
      ],
      "payable": false,
      "stateMutability": "nonpayable",
      "type": "function"
    },
    {
      "constant": false,
      "inputs": [
        {
          "name": "_requestId",
          "type": "bytes32"
        },
        {
          "name": "_result",
          "type": "bytes32"
        }
      ],
      "name": "fulfillVoutAddress",
      "outputs": [],
      "payable": false,
      "stateMutability": "nonpayable",
      "type": "function"
    },
    {
      "constant": false,
      "inputs": [
        {
          "name": "_eBtcAddress",
          "type": "string"
        }
      ],
      "name": "requestVoutValue",
      "outputs": [
        {
          "name": "requestId",
          "type": "bytes32"
        }
      ],
      "payable": false,
      "stateMutability": "nonpayable",
      "type": "function"
    },
    {
      "constant": false,
      "inputs": [
        {
          "name": "_requestId",
          "type": "bytes32"
        },
        {
          "name": "_result",
          "type": "bytes32"
        }
      ],
      "name": "fulfillVoutValue",
      "outputs": [],
      "payable": false,
      "stateMutability": "nonpayable",
      "type": "function"
    }
  ],
  "bytecode": "0x608060405260016004553480156200001657600080fd5b5060405160808062002dcb833981018060405281019080805190602001909291908051906020019092919080519060200190929190805190602001909291905050506200007284620000a8640100000000026401000000009004565b6200008c83620000ec640100000000026401000000009004565b8160078160001916905550806006819055505050505062000130565b80600260006101000a81548173ffffffffffffffffffffffffffffffffffffffff021916908373ffffffffffffffffffffffffffffffffffffffff16021790555050565b80600360006101000a81548173ffffffffffffffffffffffffffffffffffffffff021916908373ffffffffffffffffffffffffffffffffffffffff16021790555050565b612c8b80620001406000396000f3006080604052600436106100a4576000357c0100000000000000000000000000000000000000000000000000000000900463ffffffff1680630a674ac7146100a95780632e74d273146101555780632e96a4b81461019457806338f423df146101c25780634def58be146102155780635a4c8a2e1461029a5780636698b53b146102d9578063afeecb7814610546578063d14569c1146105cb578063ebc39e2214610650575b600080fd5b610153600480360381019080803590602001908201803590602001908080601f0160208091040260200160405190810160405280939291908181526020018383808284378201915050505050509192919290803590602001908201803590602001908080601f01602080910402602001604051908101604052809392919081815260200183838082843782019150505050505091929192908035906020019092919050505061068f565b005b34801561016157600080fd5b506101926004803603810190808035600019169060200190929190803560001916906020019092919050505061073e565b005b6101c0600480360381019080803590602001908201803590602001919091929391929390505050610954565b005b3480156101ce57600080fd5b50610213600480360381019080803590602001908201803590602001919091929391929390803590602001908201803590602001919091929391929390505050610aeb565b005b34801561022157600080fd5b5061027c600480360381019080803590602001908201803590602001908080601f0160208091040260200160405190810160405280939291908181526020018383808284378201915050505050509192919290505050610cb4565b60405180826000191660001916815260200191505060405180910390f35b3480156102a657600080fd5b506102d760048036038101908080356000191690602001909291908035600019169060200190929190505050610f8a565b005b3480156102e557600080fd5b50610340600480360381019080803590602001908201803590602001908080601f01602080910402602001604051908101604052809392919081815260200183838082843782019150505050505091929192905050506111a0565b604051808d1515151581526020018c8152602001806020018b81526020018a81526020018973ffffffffffffffffffffffffffffffffffffffff1673ffffffffffffffffffffffffffffffffffffffff168152602001806020018873ffffffffffffffffffffffffffffffffffffffff1673ffffffffffffffffffffffffffffffffffffffff1681526020018060200187600019166000191681526020018660001916600019168152602001856000191660001916815260200184810384528e818151815260200191508051906020019080838360005b83811015610432578082015181840152602081019050610417565b50505050905090810190601f16801561045f5780820380516001836020036101000a031916815260200191505b5084810383528a818151815260200191508051906020019080838360005b8381101561049857808201518184015260208101905061047d565b50505050905090810190601f1680156104c55780820380516001836020036101000a031916815260200191505b50848103825288818151815260200191508051906020019080838360005b838110156104fe5780820151818401526020810190506104e3565b50505050905090810190601f16801561052b5780820380516001836020036101000a031916815260200191505b509f5050505050505050505050505050505060405180910390f35b34801561055257600080fd5b506105ad600480360381019080803590602001908201803590602001908080601f01602080910402602001604051908101604052809392919081815260200183838082843782019150505050505091929192905050506114a5565b60405180826000191660001916815260200191505060405180910390f35b3480156105d757600080fd5b50610632600480360381019080803590602001908201803590602001908080601f016020809104026020016040519081016040528093929190818152602001838380828437820191505050505050919291929050505061177b565b60405180826000191660001916815260200191505060405180910390f35b34801561065c57600080fd5b5061068d60048036038101908080356000191690602001909291908035600019169060200190929190505050611a51565b005b600015156009846040518082805190602001908083835b6020831015156106cb57805182526020820191506020810190506020830392506106a6565b6001836020036101000a038019825116818451168082178552505050505050905001915050908152602001604051809103902060000160009054906101000a900460ff16151514151561071d57600080fd5b60003411151561072c57600080fd5b6107393483833387611c67565b505050565b60008260056000826000191660001916815260200190815260200160002060009054906101000a900473ffffffffffffffffffffffffffffffffffffffff1673ffffffffffffffffffffffffffffffffffffffff163373ffffffffffffffffffffffffffffffffffffffff16141515610845576040517f08c379a00000000000000000000000000000000000000000000000000000000081526004018080602001828103825260288152602001807f536f75726365206d75737420626520746865206f7261636c65206f662074686581526020017f207265717565737400000000000000000000000000000000000000000000000081525060400191505060405180910390fd5b60056000826000191660001916815260200190815260200160002060006101000a81549073ffffffffffffffffffffffffffffffffffffffff021916905580600019167f7cc135e0cebb02c3480ae5d74d377283180a2601f8f644edf7987b009316c63a60405160405180910390a260086000856000191660001916815260200190815260200160002091508260098360405180828054600181600116156101000203166002900480156109305780601f1061090e576101008083540402835291820191610930565b820191906000526020600020905b81548152906001019060200180831161091c575b50509150509081526020016040518091039020600901816000191690555050505050565b600115156009838360405180838380828437820191505092505050908152602001604051809103902060000160009054906101000a900460ff16151514151561099c57600080fd5b60006009838360405180838380828437820191505092505050908152602001604051809103902060070160009054906101000a900473ffffffffffffffffffffffffffffffffffffffff1673ffffffffffffffffffffffffffffffffffffffff16141515610a0957600080fd5b346009838360405180838380828437820191505092505050908152602001604051809103902060030154141515610a3f57600080fd5b336009838360405180838380828437820191505092505050908152602001604051809103902060070160006101000a81548173ffffffffffffffffffffffffffffffffffffffff021916908373ffffffffffffffffffffffffffffffffffffffff160217905550610abb61384042611f8e90919063ffffffff16565b60098383604051808383808284378201915050925050509081526020016040518091039020600401819055505050565b6000806000600115156009888860405180838380828437820191505092505050908152602001604051809103902060000160009054906101000a900460ff161515141515610b3857600080fd5b600073ffffffffffffffffffffffffffffffffffffffff166009888860405180838380828437820191505092505050908152602001604051809103902060070160009054906101000a900473ffffffffffffffffffffffffffffffffffffffff1673ffffffffffffffffffffffffffffffffffffffff1614151515610bbc57600080fd5b8484600989896040518083838082843782019150509250505090815260200160405180910390206008019190610bf3929190612a98565b50610c2f87878080601f016020809104026020016040519081016040528093929190818152602001838380828437820191505050505050610cb4565b9250610c6c87878080601f0160208091040260200160405190810160405280939291908181526020018383808284378201915050505050506114a5565b9150610ca987878080601f01602080910402602001604051908101604052809392919081815260200183838082843782019150505050505061177b565b905050505050505050565b6000610cbe612b18565b610cee60075430632e74d2737c010000000000000000000000000000000000000000000000000000000002611faa565b9050610e406040805190810160405280600481526020017f68617368000000000000000000000000000000000000000000000000000000008152506009856040518082805190602001908083835b602083101515610d615780518252602082019150602081019050602083039250610d3c565b6001836020036101000a03801982511681845116808217855250505050505090500191505090815260200160405180910390206008018054600181600116156101000203166002900480601f016020809104026020016040519081016040528092919081815260200182805460018160011615610100020316600290048015610e2b5780601f10610e0057610100808354040283529160200191610e2b565b820191906000526020600020905b815481529060010190602001808311610e0e57829003601f168201915b505050505083611fdb9092919063ffffffff16565b610ebf6040805190810160405280600681526020017f656e636f646500000000000000000000000000000000000000000000000000008152506040805190810160405280600481526020017f747275650000000000000000000000000000000000000000000000000000000081525083611fdb9092919063ffffffff16565b610f3e6040805190810160405280600881526020017f636f7079506174680000000000000000000000000000000000000000000000008152506040805190810160405280600d81526020017f636f6e6669726d6174696f6e730000000000000000000000000000000000000081525083611fdb9092919063ffffffff16565b610f52610f4961200e565b82600654612038565b9150826008600084600019166000191681526020019081526020016000209080519060200190610f83929190612b86565b5050919050565b60008260056000826000191660001916815260200190815260200160002060009054906101000a900473ffffffffffffffffffffffffffffffffffffffff1673ffffffffffffffffffffffffffffffffffffffff163373ffffffffffffffffffffffffffffffffffffffff16141515611091576040517f08c379a00000000000000000000000000000000000000000000000000000000081526004018080602001828103825260288152602001807f536f75726365206d75737420626520746865206f7261636c65206f662074686581526020017f207265717565737400000000000000000000000000000000000000000000000081525060400191505060405180910390fd5b60056000826000191660001916815260200190815260200160002060006101000a81549073ffffffffffffffffffffffffffffffffffffffff021916905580600019167f7cc135e0cebb02c3480ae5d74d377283180a2601f8f644edf7987b009316c63a60405160405180910390a2600860008560001916600019168152602001908152602001600020915082600983604051808280546001816001161561010002031660029004801561117c5780601f1061115a57610100808354040283529182019161117c565b820191906000526020600020905b815481529060010190602001808311611168575b50509150509081526020016040518091039020600b01816000191690555050505050565b6000806060600080600060606000606060008060008060098e6040518082805190602001908083835b6020831015156111ee57805182526020820191506020810190506020830392506111c9565b6001836020036101000a038019825116818451168082178552505050505050905001915050908152602001604051809103902090508060000160009054906101000a900460ff16816001015482600201836003015484600401548560050160009054906101000a900473ffffffffffffffffffffffffffffffffffffffff16866006018760070160009054906101000a900473ffffffffffffffffffffffffffffffffffffffff168860080189600901548a600a01548b600b0154898054600181600116156101000203166002900480601f01602080910402602001604051908101604052809291908181526020018280546001816001161561010002031660029004801561133e5780601f106113135761010080835404028352916020019161133e565b820191906000526020600020905b81548152906001019060200180831161132157829003601f168201915b50505050509950858054600181600116156101000203166002900480601f0160208091040260200160405190810160405280929190818152602001828054600181600116156101000203166002900480156113da5780601f106113af576101008083540402835291602001916113da565b820191906000526020600020905b8154815290600101906020018083116113bd57829003601f168201915b50505050509550838054600181600116156101000203166002900480601f0160208091040260200160405190810160405280929190818152602001828054600181600116156101000203166002900480156114765780601f1061144b57610100808354040283529160200191611476565b820191906000526020600020905b81548152906001019060200180831161145957829003601f168201915b505050505093509c509c509c509c509c509c509c509c509c509c509c509c505091939597999b5091939597999b565b60006114af612b18565b6114df6007543063ebc39e227c010000000000000000000000000000000000000000000000000000000002611faa565b90506116316040805190810160405280600481526020017f68617368000000000000000000000000000000000000000000000000000000008152506009856040518082805190602001908083835b602083101515611552578051825260208201915060208101905060208303925061152d565b6001836020036101000a03801982511681845116808217855250505050505090500191505090815260200160405180910390206008018054600181600116156101000203166002900480601f01602080910402602001604051908101604052809291908181526020018280546001816001161561010002031660029004801561161c5780601f106115f15761010080835404028352916020019161161c565b820191906000526020600020905b8154815290600101906020018083116115ff57829003601f168201915b505050505083611fdb9092919063ffffffff16565b6116b06040805190810160405280600681526020017f656e636f646500000000000000000000000000000000000000000000000000008152506040805190810160405280600481526020017f747275650000000000000000000000000000000000000000000000000000000081525083611fdb9092919063ffffffff16565b61172f6040805190810160405280600881526020017f636f7079506174680000000000000000000000000000000000000000000000008152506040805190810160405280601f81526020017f766f75742e302e7363726970745075624b65792e6164647265737365732e300081525083611fdb9092919063ffffffff16565b61174361173a61200e565b82600654612038565b9150826008600084600019166000191681526020019081526020016000209080519060200190611774929190612b86565b5050919050565b6000611785612b18565b6117b560075430635a4c8a2e7c010000000000000000000000000000000000000000000000000000000002611faa565b90506119076040805190810160405280600481526020017f68617368000000000000000000000000000000000000000000000000000000008152506009856040518082805190602001908083835b6020831015156118285780518252602082019150602081019050602083039250611803565b6001836020036101000a03801982511681845116808217855250505050505090500191505090815260200160405180910390206008018054600181600116156101000203166002900480601f0160208091040260200160405190810160405280929190818152602001828054600181600116156101000203166002900480156118f25780601f106118c7576101008083540402835291602001916118f2565b820191906000526020600020905b8154815290600101906020018083116118d557829003601f168201915b505050505083611fdb9092919063ffffffff16565b6119866040805190810160405280600681526020017f656e636f646500000000000000000000000000000000000000000000000000008152506040805190810160405280600481526020017f747275650000000000000000000000000000000000000000000000000000000081525083611fdb9092919063ffffffff16565b611a056040805190810160405280600881526020017f636f7079506174680000000000000000000000000000000000000000000000008152506040805190810160405280600c81526020017f766f75742e302e76616c7565000000000000000000000000000000000000000081525083611fdb9092919063ffffffff16565b611a19611a1061200e565b82600654612038565b9150826008600084600019166000191681526020019081526020016000209080519060200190611a4a929190612b86565b5050919050565b60008260056000826000191660001916815260200190815260200160002060009054906101000a900473ffffffffffffffffffffffffffffffffffffffff1673ffffffffffffffffffffffffffffffffffffffff163373ffffffffffffffffffffffffffffffffffffffff16141515611b58576040517f08c379a00000000000000000000000000000000000000000000000000000000081526004018080602001828103825260288152602001807f536f75726365206d75737420626520746865206f7261636c65206f662074686581526020017f207265717565737400000000000000000000000000000000000000000000000081525060400191505060405180910390fd5b60056000826000191660001916815260200190815260200160002060006101000a81549073ffffffffffffffffffffffffffffffffffffffff021916905580600019167f7cc135e0cebb02c3480ae5d74d377283180a2601f8f644edf7987b009316c63a60405160405180910390a26008600085600019166000191681526020019081526020016000209150826009836040518082805460018160011615610100020316600290048015611c435780601f10611c21576101008083540402835291820191611c43565b820191906000526020600020905b815481529060010190602001808311611c2f575b50509150509081526020016040518091039020600a01816000191690555050505050565b60016009826040518082805190602001908083835b602083101515611ca15780518252602082019150602081019050602083039250611c7c565b6001836020036101000a038019825116818451168082178552505050505050905001915050908152602001604051809103902060000160006101000a81548160ff021916908315150217905550846009826040518082805190602001908083835b602083101515611d275780518252602082019150602081019050602083039250611d02565b6001836020036101000a038019825116818451168082178552505050505050905001915050908152602001604051809103902060010181905550836009826040518082805190602001908083835b602083101515611d9a5780518252602082019150602081019050602083039250611d75565b6001836020036101000a03801982511681845116808217855250505050505090500191505090815260200160405180910390206002019080519060200190611de3929190612b86565b50826009826040518082805190602001908083835b602083101515611e1d5780518252602082019150602081019050602083039250611df8565b6001836020036101000a038019825116818451168082178552505050505050905001915050908152602001604051809103902060030181905550816009826040518082805190602001908083835b602083101515611e905780518252602082019150602081019050602083039250611e6b565b6001836020036101000a038019825116818451168082178552505050505050905001915050908152602001604051809103902060050160006101000a81548173ffffffffffffffffffffffffffffffffffffffff021916908373ffffffffffffffffffffffffffffffffffffffff160217905550806009826040518082805190602001908083835b602083101515611f3d5780518252602082019150602081019050602083039250611f18565b6001836020036101000a03801982511681845116808217855250505050505090500191505090815260200160405180910390206006019080519060200190611f86929190612b86565b505050505050565b60008183019050828110151515611fa157fe5b80905092915050565b611fb2612b18565b611fba612b18565b611fd1858585846123c4909392919063ffffffff16565b9150509392505050565b611ff282846080015161247e90919063ffffffff16565b61200981846080015161247e90919063ffffffff16565b505050565b6000600360009054906101000a900473ffffffffffffffffffffffffffffffffffffffff16905090565b600030600454604051602001808373ffffffffffffffffffffffffffffffffffffffff1673ffffffffffffffffffffffffffffffffffffffff166c01000000000000000000000000028152601401828152602001925050506040516020818303038152906040526040518082805190602001908083835b6020831015156120d457805182526020820191506020810190506020830392506120af565b6001836020036101000a038019825116818451168082178552505050505050905001915050604051809103902090506004548360600181815250508360056000836000191660001916815260200190815260200160002060006101000a81548173ffffffffffffffffffffffffffffffffffffffff021916908373ffffffffffffffffffffffffffffffffffffffff16021790555080600019167fb5e6e01e79f91267dc17b4e6314d5d4d03593d2ceee0fbb452b750bd70ea5af960405160405180910390a2600260009054906101000a900473ffffffffffffffffffffffffffffffffffffffff1673ffffffffffffffffffffffffffffffffffffffff16634000aea085846121e3876124a3565b6040518463ffffffff167c0100000000000000000000000000000000000000000000000000000000028152600401808473ffffffffffffffffffffffffffffffffffffffff1673ffffffffffffffffffffffffffffffffffffffff16815260200183815260200180602001828103825283818151815260200191508051906020019080838360005b8381101561228657808201518184015260208101905061226b565b50505050905090810190601f1680156122b35780820380516001836020036101000a031916815260200191505b50945050505050602060405180830381600087803b1580156122d457600080fd5b505af11580156122e8573d6000803e3d6000fd5b505050506040513d60208110156122fe57600080fd5b810190808051906020019092919050505015156123a9576040517f08c379a00000000000000000000000000000000000000000000000000000000081526004018080602001828103825260238152602001807f756e61626c6520746f207472616e73666572416e6443616c6c20746f206f726181526020017f636c65000000000000000000000000000000000000000000000000000000000081525060400191505060405180910390fd5b60016004600082825401925050819055508090509392505050565b6123cc612b18565b6123dc85608001516101006126ce565b50838560000190600019169081600019168152505082856020019073ffffffffffffffffffffffffffffffffffffffff16908173ffffffffffffffffffffffffffffffffffffffff16815250508185604001907bffffffffffffffffffffffffffffffffffffffffffffffffffffffff191690817bffffffffffffffffffffffffffffffffffffffffffffffffffffffff191681525050849050949350505050565b61248b8260038351612728565b61249e818361288690919063ffffffff16565b505050565b6060600360009054906101000a900473ffffffffffffffffffffffffffffffffffffffff1673ffffffffffffffffffffffffffffffffffffffff16634042994690507c01000000000000000000000000000000000000000000000000000000000260008084600001518560200151866040015187606001516001896080015160000151604051602401808973ffffffffffffffffffffffffffffffffffffffff1673ffffffffffffffffffffffffffffffffffffffff16815260200188815260200187600019166000191681526020018673ffffffffffffffffffffffffffffffffffffffff1673ffffffffffffffffffffffffffffffffffffffff168152602001857bffffffffffffffffffffffffffffffffffffffffffffffffffffffff19167bffffffffffffffffffffffffffffffffffffffffffffffffffffffff1916815260200184815260200183815260200180602001828103825283818151815260200191508051906020019080838360005b83811015612631578082015181840152602081019050612616565b50505050905090810190601f16801561265e5780820380516001836020036101000a031916815260200191505b509950505050505050505050604051602081830303815290604052907bffffffffffffffffffffffffffffffffffffffffffffffffffffffff19166020820180517bffffffffffffffffffffffffffffffffffffffffffffffffffffffff83818316178352505050509050919050565b6126d6612c06565b60006020838115156126e457fe5b06141515612701576020828115156126f857fe5b06602003820191505b81836020018181525050604051808452600081528281016020016040525082905092915050565b60178111151561275a576127548160058460ff169060020a0260ff1617846128a890919063ffffffff16565b50612881565b60ff811115156127a157612784601860058460ff169060020a0217846128a890919063ffffffff16565b5061279b816001856128c89092919063ffffffff16565b50612880565b61ffff811115156127e9576127cc601960058460ff169060020a0217846128a890919063ffffffff16565b506127e3816002856128c89092919063ffffffff16565b5061287f565b63ffffffff8111151561283357612816601a60058460ff169060020a0217846128a890919063ffffffff16565b5061282d816004856128c89092919063ffffffff16565b5061287e565b67ffffffffffffffff8111151561287d57612864601b60058460ff169060020a0217846128a890919063ffffffff16565b5061287b816008856128c89092919063ffffffff16565b505b5b5b5b5b505050565b61288e612c06565b6128a0838460000151518485516128ea565b905092915050565b6128b0612c06565b6128c083846000015151846129a7565b905092915050565b6128d0612c06565b6128e18485600001515185856129f7565b90509392505050565b6128f2612c06565b60008060008551851115151561290757600080fd5b876020015185880111156129325761293188600261292b8b602001518b8a01612a58565b02612a74565b5b87518051886020830101945080898801111561294e5788870182525b60208801935050505b60208510151561297c5781518352602083019250602082019150602085039450612957565b6001856020036101000a03905080198251168184511681811785525050879350505050949350505050565b6129af612c06565b8360200151831015156129ce576129cd846002866020015102612a74565b5b83518051602085830101848153818614156129ea576001820183525b5050508390509392505050565b6129ff612c06565b600085602001518584011115612a1f57612a1e86600287860102612a74565b5b6001836101000a0390508551838682010185831982511617815281518588011115612a4a5784870182525b505085915050949350505050565b600081831115612a6a57829050612a6e565b8190505b92915050565b606082600001519050612a8783836126ce565b50612a928382612886565b50505050565b828054600181600116156101000203166002900490600052602060002090601f016020900481019282601f10612ad957803560ff1916838001178555612b07565b82800160010185558215612b07579182015b82811115612b06578235825591602001919060010190612aeb565b5b509050612b149190612c20565b5090565b60c06040519081016040528060008019168152602001600073ffffffffffffffffffffffffffffffffffffffff16815260200160007bffffffffffffffffffffffffffffffffffffffffffffffffffffffff1916815260200160008152602001612b80612c45565b81525090565b828054600181600116156101000203166002900490600052602060002090601f016020900481019282601f10612bc757805160ff1916838001178555612bf5565b82800160010185558215612bf5579182015b82811115612bf4578251825591602001919060010190612bd9565b5b509050612c029190612c20565b5090565b604080519081016040528060608152602001600081525090565b612c4291905b80821115612c3e576000816000905550600101612c26565b5090565b90565b6040805190810160405280606081526020016000815250905600a165627a7a723058208fd7c5551419e2affaa322b75929bc706e2f20ef8a45325297279be06e3ad29b0029",
  "source": "pragma solidity 0.4.24;\n\nimport \"chainlink/contracts/ChainlinkClient.sol\";\n\ncontract MyContract is ChainlinkClient{\n  uint256 private oraclePaymentAmount;\n  bytes32 private jobId;\n\n  struct SwapContract {\n    // Contract information\n    bool exists;\n    uint256 offeredEth;\n    string requestedBtc;\n    uint256 requestedEthCollateral;\n    uint256 endsAt;\n\n    // Ethereum giver information\n    address eEthAddress;\n    string eBtcAddress;\n\n    // Bitcoin giver information\n    address bEthAddress;\n\n    // Fullfillment\n    string transactionHash;\n    bytes32 nbConfirmations;\n    bytes32 voutAddress;\n    bytes32 voutValue;\n  }\n\n  // Mapping of requestId => eBtcAddress\n  mapping (bytes32 => string) eBtcAddressForRequestId;\n\n  // Mapping of eBtcAddress => swapContract\n  mapping (string => SwapContract) swapContracts;\n\n\n  // Accessor to a single user\n  function getSwapContract(\n    string eBtcAddress\n  ) public view returns(\n    bool,\n    uint256,\n    string,\n    uint256,\n    uint256,\n    address,\n    string,\n    address,\n    string,\n    bytes32,\n    bytes32,\n    bytes32) {\n    SwapContract storage sc = swapContracts[eBtcAddress];\n    return (\n      sc.exists,\n      sc.offeredEth,\n      sc.requestedBtc,\n      sc.requestedEthCollateral,\n      sc.endsAt,\n      sc.eEthAddress,\n      sc.eBtcAddress,\n      sc.bEthAddress,\n      sc.transactionHash,\n      sc.nbConfirmations,\n      sc.voutAddress,\n      sc.voutValue\n    );\n  }\n\n  // Instantiate a swap contract\n  function createSwapContract(\n    uint256 _offeredEth,\n    string _requestedBtc,\n    uint256 _requestedEthCollateral,\n    address _eEthAddress,\n    string _eBtcAddress\n  ) private {\n    swapContracts[_eBtcAddress].exists = true;\n    swapContracts[_eBtcAddress].offeredEth = _offeredEth;\n    swapContracts[_eBtcAddress].requestedBtc = _requestedBtc;\n    swapContracts[_eBtcAddress].requestedEthCollateral = _requestedEthCollateral;\n    swapContracts[_eBtcAddress].eEthAddress = _eEthAddress;\n    swapContracts[_eBtcAddress].eBtcAddress = _eBtcAddress;\n  }\n\n  constructor(\n    address _link,\n    address _oracle,\n    bytes32 _jobId,\n    uint256 _oraclePaymentAmount\n  ) public {\n    setChainlinkToken(_link);\n    setChainlinkOracle(_oracle);\n    jobId = _jobId;\n    oraclePaymentAmount = _oraclePaymentAmount;\n  }\n\n  function initiateSwapContract(\n      string _eBtcAddress,\n      string _requestedBtc,\n      uint256 _requestedEthCollateral\n  ) public payable {\n    require(swapContracts[_eBtcAddress].exists == false);\n    require(msg.value > 0);\n\n    createSwapContract(\n      msg.value,\n      _requestedBtc,\n      _requestedEthCollateral,\n      msg.sender,\n      _eBtcAddress\n    );\n  }\n\n  function acceptSwapContract(\n    string _eBtcAddress\n  ) external payable {\n    // id exists; hasn't been registered to before; has the correct amount of collateral\n    require(swapContracts[_eBtcAddress].exists == true);\n    require(swapContracts[_eBtcAddress].bEthAddress == 0);\n    require(swapContracts[_eBtcAddress].requestedEthCollateral == msg.value);\n\n    swapContracts[_eBtcAddress].bEthAddress = msg.sender;\n    swapContracts[_eBtcAddress].endsAt = block.timestamp.add(4 hours);\n  }\n\n  function satisfySwapContract(\n    string _eBtcAddress,\n    string _transactionHash\n  ) external {\n    // id exists; has been registered to; before the endsAt\n    require(swapContracts[_eBtcAddress].exists == true);\n    require(swapContracts[_eBtcAddress].bEthAddress != address(0));\n    /* require(swapContracts[_eBtcAddress].endsAt > block.timestamp); */\n\n    swapContracts[_eBtcAddress].transactionHash = _transactionHash;\n\n    bytes32 requestIdA = requestNbConfirmations(_eBtcAddress);\n    bytes32 requestIdB = requestVoutAddress(_eBtcAddress);\n    bytes32 requestIdC = requestVoutValue(_eBtcAddress);\n  }\n\n  function requestNbConfirmations(\n    string _eBtcAddress\n  ) public returns (bytes32 requestId) {\n    /* require(swapContracts[_eBtcAddress].exists == true); */\n    /* require(swapContracts[_eBtcAddress].bEthAddress != address(0)); */\n    /* swapContracts[_eBtcAddress].transactionHash = _transactionHash; */\n\n    Chainlink.Request memory req = buildChainlinkRequest(jobId, this, this.fulfillNbConfirmations.selector);\n    req.add(\"hash\", swapContracts[_eBtcAddress].transactionHash);\n    req.add(\"encode\", \"true\");\n    req.add(\"copyPath\", \"confirmations\");\n    requestId = sendChainlinkRequestTo(chainlinkOracleAddress(), req, oraclePaymentAmount);\n    eBtcAddressForRequestId[requestId] = _eBtcAddress;\n  }\n\n  function fulfillNbConfirmations(\n    bytes32 _requestId, bytes32 _result\n  ) public recordChainlinkFulfillment(_requestId) {\n    string eBtcAddress = eBtcAddressForRequestId[_requestId];\n    swapContracts[eBtcAddress].nbConfirmations = _result;\n  }\n\n  function requestVoutAddress(\n    string _eBtcAddress\n  ) public returns (bytes32 requestId) {\n    Chainlink.Request memory req = buildChainlinkRequest(jobId, this, this.fulfillVoutAddress.selector);\n    req.add(\"hash\", swapContracts[_eBtcAddress].transactionHash);\n    req.add(\"encode\", \"true\");\n    req.add(\"copyPath\", \"vout.0.scriptPubKey.addresses.0\");\n    requestId = sendChainlinkRequestTo(chainlinkOracleAddress(), req, oraclePaymentAmount);\n    eBtcAddressForRequestId[requestId] = _eBtcAddress;\n  }\n\n  function fulfillVoutAddress(\n    bytes32 _requestId, bytes32 _result\n  ) public recordChainlinkFulfillment(_requestId) {\n    string eBtcAddress = eBtcAddressForRequestId[_requestId];\n    swapContracts[eBtcAddress].voutAddress = _result;\n  }\n\n  function requestVoutValue(\n    string _eBtcAddress\n  ) public returns (bytes32 requestId) {\n    Chainlink.Request memory req = buildChainlinkRequest(jobId, this, this.fulfillVoutValue.selector);\n    req.add(\"hash\", swapContracts[_eBtcAddress].transactionHash);\n    req.add(\"encode\", \"true\");\n    req.add(\"copyPath\", \"vout.0.value\");\n    requestId = sendChainlinkRequestTo(chainlinkOracleAddress(), req, oraclePaymentAmount);\n    eBtcAddressForRequestId[requestId] = _eBtcAddress;\n  }\n\n  function fulfillVoutValue(\n    bytes32 _requestId, bytes32 _result\n  ) public recordChainlinkFulfillment(_requestId) {\n    string eBtcAddress = eBtcAddressForRequestId[_requestId];\n    swapContracts[eBtcAddress].voutValue = _result;\n  }\n}\n",
  "sourcePath": "/Users/raphaelpapillon/Projects/hackathon/e2b-swapper/contracts/MyContract.sol",
  "compiler": {
    "name": "solc",
    "version": "0.4.24+commit.e67f0147.Emscripten.clang"
  },
  "schemaVersion": "3.0.19",
  "updatedAt": "2019-12-09T04:57:09.008Z",
  "networkType": "ethereum",
  "devdoc": {
    "methods": {}
  },
  "userdoc": {
    "methods": {}
  }
}